:100000000110040000000000C01B0000FF00000001
:10001000020AD8FF1AE8FF1AFBFF1B0EFF1B21FF85
:100020001B34FF1B47FF1B5AFF1B6D021BA4E4FB85
:10003000EB25E025E02480F8120232EB25E025E0F4
:10004000248CF812024B0BBB03E62202166EEF6003
:100050000543D504800353D5FB53F5FB53E5FB4320
:10006000E30443ED04E490009CF02202108CBB01F9
:100070000689828A83E0225002E722BBFE02E32245
:1000800089828A83E49322EF8DF0A4A8F0CF8CF0CC
:10009000A428CE8DF0A42EFE22BC000BBE0029EFBA
:1000A0008DF084FFADF022E4CCF875F008EF2FFF5F
:1000B000EE33FEEC33FCEE9DEC984005FCEE9DFE2D
:1000C0000FD5F0E9E4CEFD22EDF8F5F0EE8420D274
:1000D0001CFEADF075F008EF2FFFED33FD400798E3
:1000E0005006D5F0F222C398FD0FD5F0EA22E88F32
:1000F000F0A4CC8BF0A42CFCE98EF0A42CFC8AF0AC
:10010000EDA42CFCEA8EF0A4CDA8F08BF0A42DCCAD
:100110003825F0FDE98FF0A42CCD35F0FCEB8EF006
:10012000A4FEA9F0EB8FF0A4CFC5F02ECD39FEE4EC
:100130003CFCEAA42DCE35F0FDE43CFC2275F00831
:10014000758200EF2FFFEE33FECD33CDCC33CCC51F
:100150008233C5829BED9AEC99E58298400CF5823A
:10016000EE9BFEED9AFDEC99FC0FD5F0D6E4CEFBAC
:10017000E4CDFAE4CCF9A88222B800C1B90059BA9A
:10018000002DEC8BF084CFCECDFCE5F0CBF97818C8
:10019000EF2FFFEE33FEED33FDEC33FCEB33FB10C2
:1001A000D703994004EB99FB0FD8E5E4F9FA2278DC
:1001B00018EF2FFFEE33FEED33FDEC33FCC933C9EE
:1001C00010D7059BE99A4007EC9BFCE99AF90FD8F8
:1001D000E0E4C9FAE4CCFB2275F010EF2FFFEE3318
:1001E000FEED33FDCC33CCC833C810D7079BEC9A57
:1001F000E899400AED9BFDEC9AFCE899F80FD5F0E0
:10020000DAE4CDFBE4CCFAE4C8F922EB9FF5F0EA9E
:100210009E42F0E99D42F0E89C45F022E8600FEC38
:10022000C313FCED13FDEE13FEEF13FFD8F122E82C
:10023000600FEFC333FFEE33FEED33FDEC33FCD83C
:10024000F122E6FC08E6FD08E6FE08E6FF22E6FBF2
:1002500008E6F908E6FA08E6CBF822ECF608EDF62F
:1002600008EEF608EFF622ECF208EDF208EEF208DE
:10027000EFF222D083D082E493F608740193F6085B
:10028000740293F608740393F6740473D083D082D7
:10029000E493F208740193F208740293F208740371
:1002A00093F27404738A838982E4738E328F33E409
:1002B000F535F536F537900096E0F536A3E0F537DD
:1002C000E4F534E518701690008FE0B4060FD39073
:1002D000009EE0940090009DE09400401EE53425CF
:1002E000E0245EF8E4F208F2E53425E025E0244C51
:1002F000F812027C000000000203B2E53425E0247D
:100300005FF9E3700219E3701AE53425E02400F880
:10031000E2FE08E2FFE53425E02458F8EEF208EFAB
:10032000F28057E53425E02458F8E2FE08E2FFE5C4
:100330003425E02400F8E2FC08E2FD121A91D3EF24
:100340009537EE95364033E53425E02400F8E2FE9B
:1003500008E2FFE53425E02458F8EEF208EFF2E574
:100360003425E0245EF8E4F208F2E53425E025E0E7
:10037000244CF812027C00000000E53425E0240043
:10038000F8E2FE08E2FFE53425E025E0244CF8C061
:1003900000E2FB08E2F908E2FA08E2CBF8E4FCFD2F
:1003A000EB2FFFEA3EFEED39FDEC38FCD0001202E7
:1003B00057E53425E0245EF808E22401F218E2341F
:1003C00000F20534E534C3940250030202B3E4F5AD
:1003D00034E53425E0245FF9C3E3953319E395321E
:1003E000400205350534E534B402E6E535640260C3
:1003F0000302048F74FF900098F0A3F0E4A3F0A32D
:10040000F0F534E53425E0245EF8E2FE08E2FF4E24
:10041000700302048FE4FCFDC004A905AA06AB0723
:10042000E53425E025E0244CF8E2FC08E2FD08E292
:10043000FE08E2FFD0001201698E388F39D3900098
:1004400099E09539900098E095384007E538F0A399
:10045000E539F0C390009BE0953990009AE095381B
:100460005007E538F0A3E539F0E53425E02406F837
:10047000E538F208E539F2E53425E0245EF8E4F2E7
:1004800008F2E53425E025E0244CF812027C000057
:100490000000C2080534E534640260030203F3225D
:1004A000121A597D01E4FF1218977F01121A3A7F40
:1004B0000112003E121B9B121B8E1214E01218CD6B
:1004C000121936D2AF753E01E53E24FD601D146061
:1004D0003D24FE700302055E14700302056614706D
:1004E0000302060C2407600302060F1217181212EB
:1004F000C99000907401F0A37418F07F0A121902D9
:10050000900092EEF0A3EFF0753E0402060FD2D8F1
:10051000E53F70FC12001E900092E07002A3E070B4
:10052000319000A1E07002A3E07027784BE66401EF
:10053000702090008CE0540F7018F53F53B9FD43C4
:10054000CC02900090F0A37422F012176353CCFDFC
:1005500080139000907401F0A37418F07F0E1219AC
:10056000028E1C8F1D121AAB753E0602060F120674
:10057000528F3E02060FD3900093E09400900092B9
:10058000E09400400CA3E024FFF0900092E034FFE0
:10059000F0D390009EE0940090009DE09400400C09
:1005A000A3E024FFF090009DE034FFF0D39000A280
:1005B000E094009000A1E09400400CA3E024FFF040
:1005C0009000A1E034FFF0D39000A4E094009000EC
:1005D000A3E094004017A3E024FFF09000A3E034D0
:1005E000FFF0E07002A3E07004784B7601D3900036
:1005F000A0E0940090009FE094004016A3E024FF48
:10060000F090009FE034FFF0E07002A3E07003126E
:1006100015521213E7120F988F3E8003753E049017
:10062000009CE064017034784BF67F081219029048
:1006300000A3EEF0A3EFF0E4FF121B9BE490009CFC
:10064000F0F51EF51F00051FE51F7002051EB42CF6
:10065000F4E51EB401EF7F01121B9B121225020468
:10066000B822E4F530E53025E025E0248CF8C00020
:10067000120232C00774522530F8E6FFFBE4FAF9A3
:10068000F8D0071200DED00012024BE53025E0253D
:10069000E0248CF8C000120232780712020CD0005D
:1006A00012024BE53025E025E0248CF8120232ECF2
:1006B0004D4E4F6076E53025E025E02474F81202B7
:1006C00032E53025E025E0248CF812023EC3120109
:1006D000FB50037F0322E53025E025E02474F81267
:1006E000023EC000E53025E025E0248CF8120232FD
:1006F000D000C3EF9BF534EE9AF533ED99F532EC6B
:1007000098F531E47FFF7EFFFDFCAB34AA33A932BC
:10071000A831C31201FB40037F0322E53025E0240A
:1007200000F8E533F208E534F28015E530C39403B0
:10073000500BE53025E0240CF8E4F208F27F0322A8
:100740000530E53064036003020655E4F530E5301A
:1007500025E02406F8E2FE08E2FFE53025E024006B
:10076000F8E2FC08E2FDD39FEC9E401EE53025E058
:100770002406F8E2FE08E2FFC3ED9FFFEC9EFEE4D4
:100780008F388E37F536F5358009E4F538F537F5CD
:1007900036F535AF38AE37AD36AC35780712021FB7
:1007A0008F388E378D368C35E53025E025E0241ED8
:1007B000F8E2FC08E2FD08E2FE08E22538FFEE352B
:1007C00037FEED3536FDEC3535FC780112020CE5CF
:1007D0003025E025E0241EF8120257E53025E025FB
:1007E000E0241EF8E2FC08E2FD08E2FE08E2FF78E1
:1007F0000712020CE53025E0240CF8EEF208EFF2C7
:100800000530E5306403600302073E7F0722E4F50C
:1008100034F533E53325E025E0244CF812027C0062
:100820000000000533E533B403E91217ECE4F533B7
:10083000E53325E025E0244CF8C000E2FC08E2FDA9
:1008400008E2FE08E2FFE53325E025E02480F81207
:10085000023EEF2BFFEE3AFEED39FDEC38FCD00006
:100860001202570533E533B403C60534E534C394A7
:100870000540B7E4F533AF34E4FCFDFEC004A90540
:10088000AA06AB07E53325E025E0244CF8E2FC0896
:10089000E2FD08E2FE08E2FFD0001201698F388E07
:1008A000378D368C35AB38AA37A936A835C00074D9
:1008B000522533F8E6FFE4FCFDFED0001200DE8F87
:1008C000388E378D368C35780712020C8F388E377C
:1008D0008D368C35E47FB87E0BFDFCAB38AA37A98A
:1008E00036A835D31201FB4030E5382448FFE53700
:1008F00034F4FEE53634FFFDE53534FFFCE5332501
:10090000E025E02474F812024BE53325E02400F8DA
:10091000740BF20874B8F2801EE53325E025E0245C
:1009200074F812026300000000E53325E02400F8AB
:10093000E537F208E538F2E53325E025E0244CF808
:1009400012027C00000000E53325E0245EF8E4F2AA
:1009500008F2E533C394035033E53325E02400F86F
:10096000E2FE08E2FFE53325E02406F8EEF208EFA8
:10097000F2E53325E0240CF8E4F208F2E53325E053
:1009800025E0241EF812027C000000000533E53348
:10099000640360030208662285BA3953BA0F43BA6A
:1009A00010E4F533E53325E025E02480F8120263F6
:1009B000000000000533E533B403E975330575AB7A
:1009C000FF1219F4E4F534E53425E025E02480F83D
:1009D000C000120232C004C005C006C007749825CA
:1009E00034F8E675F003A42403F582E43400F583BB
:1009F000E493FB740193FA740293F9120295A8042C
:100A0000A905AA06AB07D007D006D005D004EF2B66
:100A1000FFEE3AFEED39FDEC38FCD00012024B053A
:100A200034E534C39403409FE4F5AB1219F4E4F5C4
:100A300034E53425E025E02480F8C000120232C0FD
:100A400004C005C006C00774982534F8E675F003A5
:100A5000A42403F582E43400F583E493FB7401934A
:100A6000FA740293F9120295A804A905AA06AB0725
:100A7000D007D006D005D004C3EF9BFFEE9AFEED61
:100A800099FDEC98FCD00012024B0534E534C39478
:100A900003409E1533E53360030209AEE4F534E408
:100AA000753810753727F536F535AF38AE37AD36B2
:100AB000AC35780712021F8F388E378D368C35E5AE
:100AC0003425E025E02480F812023E1201698F38B7
:100AD0008E378D368C3574522534F8A6070534E5EB
:100AE00034B403BB8539BA22439F04E453C6DFE51F
:100AF000C600B5C6F375830075820775FD0DE4E584
:100B0000FEF4FF75830075820675FD0DE4E5FEB504
:100B10000704F59E8003759E0078100000D8FC53F2
:100B2000C6E043C60843C68075960775970575836A
:100B30000075820475FD0DE5FD04F58F7583007564
:100B4000821175FD0DE4E5FEF4FF758300758210DA
:100B500075FD0DE4E5FEB50705F595020B7B758384
:100B60000075820375FD0DE4E5FEF4FF75830075E5
:100B7000820275FD0DE4E5FEB50708242DF59540CC
:100B800007800875959680037595FF75BE0E539284
:100B9000FE9001007F007E02E4F0A3DFFCDEFA7825
:100BA000007F00E4F208DFFC78FFE4F6D8FD7581F1
:100BB000A3020BE2020000020490E493A3F8E49382
:100BC000A34003F68001F208DFF48029E493A3F840
:100BD0005407240CC8C333C4540F4420C8834004B2
:100BE000F456800146F6DFE4800B01020408102071
:100BF0004080901618E47E019360BCA3FF543F3000
:100C0000E509541FFEE493A360010ECF54C025E014
:100C100060A840B8E493A3FAE493A3F8E493A3C8CC
:100C2000C582C8CAC583CAF0A3C8C582C8CAC5835D
:100C3000CADFE9DEE780BEE4FD300420ED25E024D4
:100C400038F582E43418F583E493FE740193FFEDE4
:100C500025E02433F8A60608A607801EED25E0242B
:100C600028F582E43418F583E493FE740193FFEDD4
:100C700025E02433F8A60608A6070DBD02BBE4FD57
:100C8000ED25E0242AF8E2FE08E2FFED25E024133A
:100C9000F9D3E39F19E39E4016ED25E02412F8E214
:100CA000FE08E2FFED25E0242AF8EEF208EFF2ED6F
:100CB00025E02433F8E6FE08E6FFEEC313FEEF134B
:100CC000FFED25E02413F9D3E39F19E39E5034EDA3
:100CD00025E02433F8E6FE08E6FFED75F008A424CD
:100CE0005CF8A60608A607ED25E02433F8E6FE0822
:100CF000E625E0FFEE33F8ED25E0242AC8F208EF00
:100D0000F2803CED25E02448F582E43418F583E4D4
:100D100093FE740193FFED25E02413F9D3E39F19AB
:100D2000E39E401BED25E0242AF9E3C313FE09E30B
:100D300013FFED75F008A4245CF8A60608A6070DBD
:100D4000ED64026003020C70E4FDED75F008A4246C
:100D50005CF8E6FE08E6FFED25E02430F8EEF20848
:100D6000EFF20DBD02E42274FFF537F538E4FFFE23
:100D7000F532E53225E0243AF8E2FC08E2FDE532FE
:100D800025E02438F8ECF208EDF20532E532B4093A
:100D9000E17804E2FD08E2784ACDF208EDF2E4F5EC
:100DA00032E53225E02438F8E2FC08E2FDC395384C
:100DB000EC953750048C378D38D3ED9FEC9E400472
:100DC000AE04AF050532E532B40AD6E538245AFD43
:100DD000E43537FCD3EF9DEE9C4011D2097F04121D
:100DE000190290009FEEF0A3EFF08002C209E4F533
:100DF00035F536F532E53225E0240CF8E2F5330816
:100E0000E2F534C39536FFE5339535FEE4FCFD7B12
:100E100064FAF9F81200DEC006C007E53225E024C6
:100E200064F582E43400F583E0FEA3E0FFFBAA064C
:100E3000E4F9F8D007D006120169E53225E024185C
:100E4000F8EEF208EFF2AE33AF34E4FCFD7B64FA67
:100E5000F9F81200DEC006C007E53225E02464F58B
:100E600082E43400F583E0FEA3E0FFFBAA06E4F988
:100E7000F8D007D006120169E53225E02412F8EE19
:100E8000F208EFF20532E53264026003020DE5225A
:100E90007533077D0774017E00A833088005C333CE
:100EA000CE33CED8F9FFACACECFBE4EF5B7003D5EE
:100EB00033E3ED601D74017E00A805088005C3338F
:100EC000CE33CED8F9FFACAEECFBE4EF5B70031D84
:100ED00080E0AF337401A807088002C333D8FCF563
:100EE000AC7401A805088002C333D8FCFFF5AD8FB0
:100EF000AE53AACF85BA3C53BA0F43BA10E4F537C4
:100F0000F536F535F5341219F4E4F53374982533D4
:100F1000F8E675F003A42403F582E43400F583E4D5
:100F200093740193FA740293F91202958F3B8E3AEF
:100F30008D398C38AB37AA36A935A834C31201FBDA
:100F4000500C853B37853A3685393585383405333D
:100F5000E533C3940340B5AF37AE36AD35AC347826
:100F60000212020CE5372FF537E5363EF536E5354A
:100F70003DF535E5343CF534AF37AE36AD35FC786C
:100F80001012020C8FB3AF37AE36AD35AC347808E3
:100F900012020C8FB28537B143AA30853CBA75ACCA
:100FA0000375ADC075AEC022E4F530753108120D81
:100FB000571217A812135C1219C990008DEFF01286
:100FC000199BEF605F7F01121902AD07AC06D39049
:100FD0000093E09400900092E094004010ECC4F87C
:100FE00054F0C868FCEDC4540F48FD802E30081141
:100FF000EDAE047803CEC313CE13D8F9FDAC068052
:101000001AC37835E2941E18E29400500EECC4F82E
:1010100054F0C868FCEDC4540F48FDAF05AE04128F
:10102000029B8003AF312290008CE0602F7F05127D
:101030001902D3900095E09F900094E09E400DE44B
:10104000FF1215BCE490008EF07F0322900095E023
:1010500004F07006900094E004F08007E49000949F
:10106000F0A3F090008CE0FF90008EE06F602A12F9
:1010700015BC90008CE090008EF0784CE654F06047
:10108000187F0C12190290009DEEF0A3EFF0900073
:101090009DE0C313F0A3E013F0AF3122C0E0C0F035
:1010A000C083C082C0D075D008C2CF30CD0302113A
:1010B0006930CB4720CC447840A6CEE6FFC394806D
:1010C000403075F003EFA42444F582E5F03415F5C3
:1010D00083E493FB740193FA7402938B238A24F5BF
:1010E000250525E5257002052414F912005EF5CECC
:1010F00080097840E62522F8E6F5CE30CC29784004
:10110000E6C394804015AB230525E525AA2470028B
:10111000052414F912005EF5CE8050784006E625CD
:1011200022F8E6F5CE804420CB41AFCE7840E6FEF3
:101130007028BF10028034BF2002802FBF50087873
:101140004FE64401F68024BF6008784FE654FEF66F
:1011500080197841A60F18068011EEC3940A500832
:101160007840E62441F8A60F784006784B76019047
:1011700000A1E51CF0A3E51DF0D0D0D082D083D033
:10118000F0D0E032E4FFFEEE75F008A4245CF8E64F
:10119000FC08E6FDEE25E02419F9C3E39D19E39C64
:1011A000400D7401A806088002C333D8FC42070E24
:1011B000BE02D4807DEEC394025077EE75F008A491
:1011C000245CF8E6FC08E6FDEE25E02419F9C3E30B
:1011D0009D19E39C401DEE25E0241DF9C3E3940A0C
:1011E00019E39400400D7401A806088002C333D8A7
:1011F000FC4207EE75F008A4246CF8E6FC08E6FD56
:10120000EE25E0241DF9C3E39D19E39C4021EE2562
:10121000E02419F9C3E3940A19E394004011EE2481
:1012200002FD7401A805088002C333D8FC42070EF2
:1012300080838F182220CA030212C87841E6700307
:101240000212C8E4F53074412530F8E6FF74262513
:1012500030F8A60774412530F8E4F60530E530B4DF
:101260000AE4E52624E0600F24B0601224607017C1
:10127000E4FF121A3A80107F01121A3A8009E4FF43
:10128000121AD47851A607E52654F064807049E517
:101290002745286043E527FE7C00E42528FFEC3E37
:1012A000FEC3EF940AEE9400402EE526540FFDBDD8
:1012B0000F19E4F530E53075F008A4245CF8A606B3
:1012C00008A6070530E530B402EB22ED75F008A45E
:1012D000245CF8A60608A60722E4F531F532121AB6
:1012E00076E490008CF090008EF0A3F0900094F0E3
:1012F000A3F090009DF0A3F0F521F530E53025E056
:101300002464F582E43400F583E0FEA3E0FF90005E
:1013100097E02FF0900096E03EF00530E530B40203
:10132000DB900096E0FEA3E0FF7C007D0A120089BE
:10133000900096EEF0A3EFF0120E801209881207CB
:10134000FEE4F530E53025E02438F8740BF208743B
:10135000B8F20530E530B40AEBE49000A1F0A3F058
:10136000A3F0A3F0784B7601121AAB22E4F532E534
:101370003225E02406F8E2FE08E2FFE53225E0240B
:1013800000F8E2FC08E2FDC39FEC9E5048E53225E0
:10139000E02407F8C3E29DF53418E29CF533FEAF74
:1013A00034E4FCFD7B64FAF9F81200DEC006C007E5
:1013B000E53225E02464F582E43400F583E0FEA301
:1013C000E0FFFBAA06E4F9F8D007D0061201698E07
:1013D000358F368009E4F533F534F535F536D3E548
:1013E00036940AE53594004002D2080532E53264AD
:1013F00002600302135F22E4F530E53075F008A4C3
:10140000245EFFE53025E02412F8E2FC08E2FD123C
:101410001AC0E53075F008A42460FFE53025E0240B
:101420000CF8E2FC08E2FD121AC0E53075F008A4E1
:101430002462FBC003E53025E02400F8E2FE08E268
:10144000FFE4FCFDE53025E025E02474F812023EBF
:10145000EF2BFFEE3AFEED39FDEC38FC780412027A
:101460000CAD07AC06D007121AC00530E530C394A6
:10147000024087784FE6F520227DFF80707864E691
:10148000FE08E6FFC3781BE29F18E29E40107874C6
:10149000E6FE08E6FF781FE29F18E29E504F7810A4
:1014A000E2FE08E2FF780DE22FF53418E23EF53354
:1014B0007812E2FE08E2FF780FE22FFF18E23EAB5F
:1014C00007FAEB25E0FFEA33FEC3E5349FE5339EE0
:1014D00050035305FAE53425E0FFE53333FEC3EB53
:1014E0009FEA9E50085305F580035305F08D19229D
:1014F000E4F530784CF6FF121AD48F30E530BFFF98
:1015000006784D76048004784D76FFE4784EF60830
:10151000F6785176FFFFEF25E02428F582E43418B1
:10152000F583E493FC740193FDEF75F008A4245C4B
:10153000F8A60408A605EF75F008A4245EF8E4F602
:1015400008F6EF75F008A42460F8E4F608F6EF75E5
:10155000F008A42462F8E4F608F60FBF03B8752279
:101560004C22E4FBEB25E025E0248CF8120232EF5C
:101570002448FFEE34F4FEED34FFFDEC34FFFCEBC9
:1015800025E025E02474F812024BEB25E02400F856
:10159000740BF20874B8F2EBC394035017EB25E018
:1015A000240CF8E4F208F2EB25E02406F8740BF2C0
:1015B0000874B8F20BBB03ACE4FBEB25E02438F86D
:1015C000740BF20874B8F20BBB0AEF2290009CE097
:1015D000705504F0E4FEFDFC7401A804088002C309
:1015E00033D8FCF9FB90008EE05BB50313EC2404C8
:1015F000FA7401A802088002C333D8FC42068003B3
:10160000E94206EF5BB50305E942058011EC2404CD
:10161000FB7401A803088002C333D8FC42050CBC4C
:1016200002B6EE5D784CF6220898010200FFFFFF3B
:10163000FFFF04A0000000006041006400960096D7
:101640000064006400640064006400640102040833
:101650000506070800000000000000000000000070
:10166000000000000000000000000000000000007A
:101670000000000000000000000000000000C0E0CA
:10168000C0F0C083C082C0D075D01053B9FD753D85
:10169000007498253DF8E675F003A42403F582E470
:1016A0003400F583E493740193FA740293F91202FF
:1016B00095E53D25E025E02480F812024B053DE547
:1016C0003DC3940340CB753F00D0D0D082D083D0AF
:1016D000F0D0E032FE0000FE0008FE0006FE000E24
:1016E000FE000CFE0014FE0012FE001AFE0018FEA2
:1016F000002000008000008800009000009800009A
:101700001801008D01008C01008EFE001EFE002AD3
:101710000100940100900100A101009D01007C01E5
:101720000084FE0030FE005EE4FFFE74982EF8E6B2
:101730009018589342070EBE03F1EF42D4EF42F4E3
:10174000EF42E4EFF452DC75AA3B75BA0C43BA10D1
:1017500043B92053B9BF8FB4E4F5B375B24E75B138
:101760002075BBFF75A950F5AB75AC0375ADC075A1
:10177000AEC022C2D9439F10539FFD43876075922C
:1017800062C28D75BD0975BC01121B8075BE0CD27D
:101790008E4387030000000075BE0E439F10E4FFD8
:1017A0000FBFFFFC439F0275BC0275927643E302B4
:1017B000E4F5BFF5B9D2D9227818E2FE08E2FF8E2F
:1017C00032F5337D01ED25E02418F8E2FA08E2FB5A
:1017D000C39533EA953250048A328B33D3EB9FEAB8
:1017E0009E4004AE02AF030DBD02DA7836E532F258
:1017F00008E533F27834EEF208EFF2221219F4E43D
:10180000F53974982539F8E675F003A42403F582B8
:10181000E43400F583E493740193FA740293F912AB
:101820000295E53925E025E02480F812024B0539C0
:10183000E539C3940340CB22002D002D003C003C31
:10184000003C003C003C003C003C003C003C003CB8
:10185000003C003C003C003C00780078003C003C30
:10186000003C003C003C003C010204081020408089
:101870006EE4FFFEEE75F008A4245DF8E624FBFD9F
:1018800018E634FFFCEE25E02413F9C3E39D19E3C9
:101890009C400D7401A806088002C333D8FC42079F
:1018A0000EBE02D08F1B22E4FE7C0274982CF8E658
:1018B0009018589342060CBC03F1EF6005EE42D439
:1018C0008004EEF452D4EEF4FF52F4EE42E4ED6004
:1018D00005EE42EC8003EF52ECEF52DC227E007FFB
:1018E0007CE4FDED25E0241AF582E4341AF583E466
:1018F00093F4601DED25E0241BF582E4341AF58392
:10190000E493FCEF2DF582E43EF583ECF00DBD1081
:10191000D222753900753A7C7B017A00BFFF057FC2
:10192000017E0022E53A2FF582E43539F583E07A2D
:1019300000FB900090E0FCA3E0FDAF037E001200EE
:1019400077AA06AB072243F80875CD4053CC7F43F6
:10195000CC4043CC2043CC1043CC0453CCFD43CBF0
:101960000243CB0153CBBF43E80853E5FC43E302FA
:1019700043F50343900343ED0322A907E4FDFC7400
:10198000017E00A804088005C333CE33CED8F9FF0A
:10199000E9FBE4EF5B600D7401A804088002C33327
:1019A000D8FC42050CBC02D7AF05227E0690008C05
:1019B000E06F6007EFF0E490008FF090008CE07033
:1019C000027E0390008FE004F0C39E50037F00224C
:1019D00090008F7406F07F0122120C2712117412EE
:1019E0001469121BA912186190008CE0700D851803
:1019F00032E5195232E51A52328003851B32AF327A
:101A000012196A2275BF0F000000000000000000DC
:101A1000000000000000000000D2D853B9FD43B917
:101A200001E5B930E1FBE4F5BF220002010102014A
:101A300003010402050606060702080109020A035B
:101A40000B280C010D030E01FF01E4FE7D027498CA
:101A50002DF8E69018589342060DBD03F1EF60048F
:101A6000EE428022EEF4528022E4F5E3439F1043DD
:101A70009F02FF0FBFFFFC539FEF75BE0EE4F5BF43
:101A8000F5B97592762253BAFEE5B920E004E53F38
:101A90006005E5B930E1FBE4F5BF53B9FE53B9FD8C
:101AA00022AB07AA06D3EB9DEA9C4007EB9DFFEA19
:101AB0009CFE22C3ED9BFFEC9AFE2275BF0F43B93B
:101AC0002053B9FD43BA01753F0143B901D2D82271
:101AD000AB07AF04AE05C2AFA803A607E804F8A69B
:101AE00006D2AF22E4FFF582F5837420FEE493F47E
:101AF0002FFFA3EEB583F62253B9EF78A1A6B7085E
:101B0000A6B608A6B578A01202322253B9EF78A182
:101B1000A6EB08A6EA08A6E978A01202322253B979
:101B2000EF78A1A6F308A6F208A6F178A012023277
:101B30002253B9EF78A1A6FB08A6FA08A6F978A067
:101B40001202322243B91078A1A6B708A6B608A699
:101B5000B578A01202322243B91078A1A6EB08A6EC
:101B6000EA08A6E978A01202322243B91078A1A6A9
:101B7000F308A6F208A6F178A01202322243B910A7
:101B800078A1A6FB08A6FA08A6F978A012023222CC
:101B9000438E08758BF0758DF0C28FD2AB22C2DAFE
:101BA00053D80F43D8D0D2D8D2D922EF6003D292E3
:101BB00022C29222C28FC28E32751AFF22FFFFFF0D
:101BC000FFFFFFFFFFFFFFFFFFFFFFFFFFFFFFFF25
:00000001FF
